{
	"_format": "hh-sol-artifact-1",
	"contractName": "Exchange",
	"sourceName": "contracts/Exchange.sol",
	"abi": [
		{
			"inputs": [
				{
					"internalType": "address",
					"name": "_feeAccount",
					"type": "address"
				},
				{
					"internalType": "uint256",
					"name": "_feeRate",
					"type": "uint256"
				}
			],
			"stateMutability": "nonpayable",
			"type": "constructor"
		},
		{
			"anonymous": false,
			"inputs": [
				{
					"indexed": false,
					"internalType": "uint256",
					"name": "id",
					"type": "uint256"
				},
				{
					"indexed": false,
					"internalType": "address",
					"name": "user",
					"type": "address"
				},
				{
					"indexed": false,
					"internalType": "address",
					"name": "tokenGive",
					"type": "address"
				},
				{
					"indexed": false,
					"internalType": "uint256",
					"name": "amountGive",
					"type": "uint256"
				},
				{
					"indexed": false,
					"internalType": "address",
					"name": "tokenGet",
					"type": "address"
				},
				{
					"indexed": false,
					"internalType": "uint256",
					"name": "amountGet",
					"type": "uint256"
				},
				{
					"indexed": false,
					"internalType": "uint256",
					"name": "timestamp",
					"type": "uint256"
				}
			],
			"name": "CancelOrder",
			"type": "event"
		},
		{
			"anonymous": false,
			"inputs": [
				{
					"indexed": false,
					"internalType": "address",
					"name": "token",
					"type": "address"
				},
				{
					"indexed": false,
					"internalType": "address",
					"name": "user",
					"type": "address"
				},
				{
					"indexed": false,
					"internalType": "uint256",
					"name": "amount",
					"type": "uint256"
				},
				{
					"indexed": false,
					"internalType": "uint256",
					"name": "balance",
					"type": "uint256"
				}
			],
			"name": "Deposit",
			"type": "event"
		},
		{
			"anonymous": false,
			"inputs": [
				{
					"indexed": false,
					"internalType": "uint256",
					"name": "id",
					"type": "uint256"
				},
				{
					"indexed": false,
					"internalType": "address",
					"name": "user",
					"type": "address"
				},
				{
					"indexed": false,
					"internalType": "address",
					"name": "tokenGive",
					"type": "address"
				},
				{
					"indexed": false,
					"internalType": "uint256",
					"name": "amountGive",
					"type": "uint256"
				},
				{
					"indexed": false,
					"internalType": "address",
					"name": "tokenGet",
					"type": "address"
				},
				{
					"indexed": false,
					"internalType": "uint256",
					"name": "amountGet",
					"type": "uint256"
				},
				{
					"indexed": false,
					"internalType": "uint256",
					"name": "timestamp",
					"type": "uint256"
				}
			],
			"name": "OpenOrder",
			"type": "event"
		},
		{
			"anonymous": false,
			"inputs": [
				{
					"indexed": false,
					"internalType": "uint256",
					"name": "orderId",
					"type": "uint256"
				},
				{
					"indexed": false,
					"internalType": "address",
					"name": "orderCreator",
					"type": "address"
				},
				{
					"indexed": false,
					"internalType": "address",
					"name": "orderTaker",
					"type": "address"
				},
				{
					"indexed": false,
					"internalType": "address",
					"name": "tokenGive",
					"type": "address"
				},
				{
					"indexed": false,
					"internalType": "uint256",
					"name": "amountGive",
					"type": "uint256"
				},
				{
					"indexed": false,
					"internalType": "address",
					"name": "tokenGet",
					"type": "address"
				},
				{
					"indexed": false,
					"internalType": "uint256",
					"name": "amountGet",
					"type": "uint256"
				},
				{
					"indexed": false,
					"internalType": "uint256",
					"name": "timestamp",
					"type": "uint256"
				}
			],
			"name": "Trade",
			"type": "event"
		},
		{
			"anonymous": false,
			"inputs": [
				{
					"indexed": false,
					"internalType": "address",
					"name": "token",
					"type": "address"
				},
				{
					"indexed": false,
					"internalType": "address",
					"name": "user",
					"type": "address"
				},
				{
					"indexed": false,
					"internalType": "uint256",
					"name": "amount",
					"type": "uint256"
				},
				{
					"indexed": false,
					"internalType": "uint256",
					"name": "balance",
					"type": "uint256"
				}
			],
			"name": "Withdraw",
			"type": "event"
		},
		{
			"inputs": [
				{
					"internalType": "address",
					"name": "_token",
					"type": "address"
				},
				{
					"internalType": "address",
					"name": "_user",
					"type": "address"
				}
			],
			"name": "balanceOf",
			"outputs": [
				{
					"internalType": "uint256",
					"name": "",
					"type": "uint256"
				}
			],
			"stateMutability": "view",
			"type": "function"
		},
		{
			"inputs": [
				{
					"internalType": "uint256",
					"name": "_id",
					"type": "uint256"
				}
			],
			"name": "cancelOrder",
			"outputs": [],
			"stateMutability": "nonpayable",
			"type": "function"
		},
		{
			"inputs": [
				{
					"internalType": "address",
					"name": "_token",
					"type": "address"
				},
				{
					"internalType": "uint256",
					"name": "_amount",
					"type": "uint256"
				}
			],
			"name": "depositToken",
			"outputs": [
				{
					"internalType": "bool",
					"name": "success",
					"type": "bool"
				}
			],
			"stateMutability": "nonpayable",
			"type": "function"
		},
		{
			"inputs": [],
			"name": "feeAccount",
			"outputs": [
				{
					"internalType": "address",
					"name": "",
					"type": "address"
				}
			],
			"stateMutability": "view",
			"type": "function"
		},
		{
			"inputs": [],
			"name": "feeRate",
			"outputs": [
				{
					"internalType": "uint256",
					"name": "",
					"type": "uint256"
				}
			],
			"stateMutability": "view",
			"type": "function"
		},
		{
			"inputs": [
				{
					"internalType": "uint256",
					"name": "_id",
					"type": "uint256"
				}
			],
			"name": "fillOrder",
			"outputs": [],
			"stateMutability": "nonpayable",
			"type": "function"
		},
		{
			"inputs": [
				{
					"internalType": "address",
					"name": "_tokenGive",
					"type": "address"
				},
				{
					"internalType": "uint256",
					"name": "_amountGive",
					"type": "uint256"
				},
				{
					"internalType": "address",
					"name": "_tokenGet",
					"type": "address"
				},
				{
					"internalType": "uint256",
					"name": "_amountGet",
					"type": "uint256"
				}
			],
			"name": "makeOrder",
			"outputs": [],
			"stateMutability": "nonpayable",
			"type": "function"
		},
		{
			"inputs": [],
			"name": "orderCount",
			"outputs": [
				{
					"internalType": "uint256",
					"name": "",
					"type": "uint256"
				}
			],
			"stateMutability": "view",
			"type": "function"
		},
		{
			"inputs": [
				{
					"internalType": "uint256",
					"name": "",
					"type": "uint256"
				}
			],
			"name": "orders",
			"outputs": [
				{
					"internalType": "uint256",
					"name": "id",
					"type": "uint256"
				},
				{
					"internalType": "address",
					"name": "user",
					"type": "address"
				},
				{
					"internalType": "address",
					"name": "tokenGive",
					"type": "address"
				},
				{
					"internalType": "uint256",
					"name": "amountGive",
					"type": "uint256"
				},
				{
					"internalType": "address",
					"name": "tokenGet",
					"type": "address"
				},
				{
					"internalType": "uint256",
					"name": "amountGet",
					"type": "uint256"
				},
				{
					"internalType": "uint256",
					"name": "timestamp",
					"type": "uint256"
				}
			],
			"stateMutability": "view",
			"type": "function"
		},
		{
			"inputs": [
				{
					"internalType": "uint256",
					"name": "",
					"type": "uint256"
				}
			],
			"name": "ordersCancelled",
			"outputs": [
				{
					"internalType": "bool",
					"name": "",
					"type": "bool"
				}
			],
			"stateMutability": "view",
			"type": "function"
		},
		{
			"inputs": [
				{
					"internalType": "uint256",
					"name": "",
					"type": "uint256"
				}
			],
			"name": "ordersFilled",
			"outputs": [
				{
					"internalType": "bool",
					"name": "",
					"type": "bool"
				}
			],
			"stateMutability": "view",
			"type": "function"
		},
		{
			"inputs": [
				{
					"internalType": "address",
					"name": "",
					"type": "address"
				},
				{
					"internalType": "address",
					"name": "",
					"type": "address"
				}
			],
			"name": "tokenBalanceOf",
			"outputs": [
				{
					"internalType": "uint256",
					"name": "",
					"type": "uint256"
				}
			],
			"stateMutability": "view",
			"type": "function"
		},
		{
			"inputs": [
				{
					"internalType": "address",
					"name": "_token",
					"type": "address"
				},
				{
					"internalType": "uint256",
					"name": "_amount",
					"type": "uint256"
				}
			],
			"name": "withdrawToken",
			"outputs": [
				{
					"internalType": "bool",
					"name": "success",
					"type": "bool"
				}
			],
			"stateMutability": "nonpayable",
			"type": "function"
		}
	],
	"bytecode": "0x60806040523480156200001157600080fd5b5060405162001e0638038062001e0683398181016040528101906200003791906200012b565b816000806101000a81548173ffffffffffffffffffffffffffffffffffffffff021916908373ffffffffffffffffffffffffffffffffffffffff16021790555080600181905550505062000172565b600080fd5b600073ffffffffffffffffffffffffffffffffffffffff82169050919050565b6000620000b8826200008b565b9050919050565b620000ca81620000ab565b8114620000d657600080fd5b50565b600081519050620000ea81620000bf565b92915050565b6000819050919050565b6200010581620000f0565b81146200011157600080fd5b50565b6000815190506200012581620000fa565b92915050565b6000806040838503121562000145576200014462000086565b5b60006200015585828601620000d9565b9250506020620001688582860162000114565b9150509250929050565b611c8480620001826000396000f3fe608060405234801561001057600080fd5b50600436106100cf5760003560e01c806367b830ad1161008c5780639e281a98116100665780639e281a9814610212578063a85c38ef14610242578063c72abc5014610278578063f7888aec146102a8576100cf565b806367b830ad146101bc578063978bbdb9146101d85780639a5c90aa146101f6576100cf565b80631bea8006146100d457806321168620146101045780632453ffa814610134578063338b5dea14610152578063514fcac71461018257806365e17c9d1461019e575b600080fd5b6100ee60048036038101906100e9919061143a565b6102d8565b6040516100fb9190611493565b60405180910390f35b61011e600480360381019061011991906114da565b6102fd565b60405161012b9190611522565b60405180910390f35b61013c61031d565b6040516101499190611493565b60405180910390f35b61016c6004803603810190610167919061153d565b610323565b6040516101799190611522565b60405180910390f35b61019c600480360381019061019791906114da565b610545565b005b6101a66106b7565b6040516101b3919061158c565b60405180910390f35b6101d660048036038101906101d191906114da565b6106db565b005b6101e0610890565b6040516101ed9190611493565b60405180910390f35b610210600480360381019061020b91906115a7565b610896565b005b61022c6004803603810190610227919061153d565b610ab5565b6040516102399190611522565b60405180910390f35b61025c600480360381019061025791906114da565b610d94565b60405161026f979695949392919061160e565b60405180910390f35b610292600480360381019061028d91906114da565b610e36565b60405161029f9190611522565b60405180910390f35b6102c260048036038101906102bd919061143a565b610e56565b6040516102cf9190611493565b60405180910390f35b6002602052816000526040600020602052806000526040600020600091509150505481565b60066020528060005260406000206000915054906101000a900460ff1681565b60035481565b60008273ffffffffffffffffffffffffffffffffffffffff166323b872dd3330856040518463ffffffff1660e01b81526004016103629392919061167d565b602060405180830381600087803b15801561037c57600080fd5b505af1158015610390573d6000803e3d6000fd5b505050506040513d601f19601f820116820180604052508101906103b491906116e0565b6103f3576040517f08c379a00000000000000000000000000000000000000000000000000000000081526004016103ea9061176a565b60405180910390fd5b81600260008573ffffffffffffffffffffffffffffffffffffffff1673ffffffffffffffffffffffffffffffffffffffff16815260200190815260200160002060003373ffffffffffffffffffffffffffffffffffffffff1673ffffffffffffffffffffffffffffffffffffffff168152602001908152602001600020600082825461047f91906117b9565b925050819055507fdcbc1c05240f31ff3ad067ef1ee35ce4997762752e3a095284754544f4c709d7833384600260008873ffffffffffffffffffffffffffffffffffffffff1673ffffffffffffffffffffffffffffffffffffffff16815260200190815260200160002060003373ffffffffffffffffffffffffffffffffffffffff1673ffffffffffffffffffffffffffffffffffffffff16815260200190815260200160002054604051610537949392919061180f565b60405180910390a192915050565b60006004600083815260200190815260200160002090508181600001541461056c57600080fd5b3373ffffffffffffffffffffffffffffffffffffffff168160010160009054906101000a900473ffffffffffffffffffffffffffffffffffffffff1673ffffffffffffffffffffffffffffffffffffffff16146105c857600080fd5b60016005600084815260200190815260200160002060006101000a81548160ff0219169083151502179055507f8ad5af334aaf597f15dd597da702fda54fdf739d22e2c11afc21612c49cd38ec81600001548260010160009054906101000a900473ffffffffffffffffffffffffffffffffffffffff168360020160009054906101000a900473ffffffffffffffffffffffffffffffffffffffff1684600301548560040160009054906101000a900473ffffffffffffffffffffffffffffffffffffffff16866005015487600601546040516106ab979695949392919061160e565b60405180910390a15050565b60008054906101000a900473ffffffffffffffffffffffffffffffffffffffff1681565b600060046000838152602001908152602001600020905060008211801561070457506003548211155b610743576040517f08c379a000000000000000000000000000000000000000000000000000000000815260040161073a906118a0565b60405180910390fd5b81816000015414610789576040517f08c379a00000000000000000000000000000000000000000000000000000000081526004016107809061190c565b60405180910390fd5b600560008260000154815260200190815260200160002060009054906101000a900460ff16156107ee576040517f08c379a00000000000000000000000000000000000000000000000000000000081526004016107e590611978565b60405180910390fd5b600660008260000154815260200190815260200160002060009054906101000a900460ff1615610853576040517f08c379a000000000000000000000000000000000000000000000000000000000815260040161084a906119e4565b60405180910390fd5b61085c81610edd565b6001600660008360000154815260200190815260200160002060006101000a81548160ff0219169083151502179055505050565b60015481565b826108a18533610e56565b10156108ac57600080fd5b60006040518060e001604052806003600081546108c890611a04565b91905081905581526020013373ffffffffffffffffffffffffffffffffffffffff1681526020018673ffffffffffffffffffffffffffffffffffffffff1681526020018581526020018473ffffffffffffffffffffffffffffffffffffffff168152602001838152602001428152509050806004600060035481526020019081526020016000206000820151816000015560208201518160010160006101000a81548173ffffffffffffffffffffffffffffffffffffffff021916908373ffffffffffffffffffffffffffffffffffffffff16021790555060408201518160020160006101000a81548173ffffffffffffffffffffffffffffffffffffffff021916908373ffffffffffffffffffffffffffffffffffffffff1602179055506060820151816003015560808201518160040160006101000a81548173ffffffffffffffffffffffffffffffffffffffff021916908373ffffffffffffffffffffffffffffffffffffffff16021790555060a0820151816005015560c082015181600601559050507ff21fbde5de32369339360d2fb0b7821eaa26646db42086e60c8755cb56bd66da816000015182602001518360400151846060015185608001518660a001518760c00151604051610aa6979695949392919061160e565b60405180910390a15050505050565b600081600260008573ffffffffffffffffffffffffffffffffffffffff1673ffffffffffffffffffffffffffffffffffffffff16815260200190815260200160002060003373ffffffffffffffffffffffffffffffffffffffff1673ffffffffffffffffffffffffffffffffffffffff168152602001908152602001600020541015610b76576040517f08c379a0000000000000000000000000000000000000000000000000000000008152600401610b6d90611a99565b60405180910390fd5b8273ffffffffffffffffffffffffffffffffffffffff1663a9059cbb33846040518363ffffffff1660e01b8152600401610bb1929190611ab9565b602060405180830381600087803b158015610bcb57600080fd5b505af1158015610bdf573d6000803e3d6000fd5b505050506040513d601f19601f82011682018060405250810190610c0391906116e0565b610c42576040517f08c379a0000000000000000000000000000000000000000000000000000000008152600401610c399061176a565b60405180910390fd5b81600260008573ffffffffffffffffffffffffffffffffffffffff1673ffffffffffffffffffffffffffffffffffffffff16815260200190815260200160002060003373ffffffffffffffffffffffffffffffffffffffff1673ffffffffffffffffffffffffffffffffffffffff1681526020019081526020016000206000828254610cce9190611ae2565b925050819055507ff341246adaac6f497bc2a656f546ab9e182111d630394f0c57c710a59a2cb567833384600260008873ffffffffffffffffffffffffffffffffffffffff1673ffffffffffffffffffffffffffffffffffffffff16815260200190815260200160002060003373ffffffffffffffffffffffffffffffffffffffff1673ffffffffffffffffffffffffffffffffffffffff16815260200190815260200160002054604051610d86949392919061180f565b60405180910390a192915050565b60046020528060005260406000206000915090508060000154908060010160009054906101000a900473ffffffffffffffffffffffffffffffffffffffff16908060020160009054906101000a900473ffffffffffffffffffffffffffffffffffffffff16908060030154908060040160009054906101000a900473ffffffffffffffffffffffffffffffffffffffff16908060050154908060060154905087565b60056020528060005260406000206000915054906101000a900460ff1681565b6000600260008473ffffffffffffffffffffffffffffffffffffffff1673ffffffffffffffffffffffffffffffffffffffff16815260200190815260200160002060008373ffffffffffffffffffffffffffffffffffffffff1673ffffffffffffffffffffffffffffffffffffffff16815260200190815260200160002054905092915050565b600060646001548360050154610ef39190611b16565b610efd9190611b9f565b9050808260050154610f0f91906117b9565b600260008460040160009054906101000a900473ffffffffffffffffffffffffffffffffffffffff1673ffffffffffffffffffffffffffffffffffffffff1673ffffffffffffffffffffffffffffffffffffffff16815260200190815260200160002060003373ffffffffffffffffffffffffffffffffffffffff1673ffffffffffffffffffffffffffffffffffffffff1681526020019081526020016000206000828254610fbe9190611ae2565b925050819055508160050154600260008460040160009054906101000a900473ffffffffffffffffffffffffffffffffffffffff1673ffffffffffffffffffffffffffffffffffffffff1673ffffffffffffffffffffffffffffffffffffffff16815260200190815260200160002060008460010160009054906101000a900473ffffffffffffffffffffffffffffffffffffffff1673ffffffffffffffffffffffffffffffffffffffff1673ffffffffffffffffffffffffffffffffffffffff168152602001908152602001600020600082825461109d91906117b9565b925050819055508160030154600260008460020160009054906101000a900473ffffffffffffffffffffffffffffffffffffffff1673ffffffffffffffffffffffffffffffffffffffff1673ffffffffffffffffffffffffffffffffffffffff16815260200190815260200160002060003373ffffffffffffffffffffffffffffffffffffffff1673ffffffffffffffffffffffffffffffffffffffff168152602001908152602001600020600082825461115891906117b9565b925050819055508160030154600260008460020160009054906101000a900473ffffffffffffffffffffffffffffffffffffffff1673ffffffffffffffffffffffffffffffffffffffff1673ffffffffffffffffffffffffffffffffffffffff16815260200190815260200160002060008460010160009054906101000a900473ffffffffffffffffffffffffffffffffffffffff1673ffffffffffffffffffffffffffffffffffffffff1673ffffffffffffffffffffffffffffffffffffffff16815260200190815260200160002060008282546112379190611ae2565b9250508190555080600260008460040160009054906101000a900473ffffffffffffffffffffffffffffffffffffffff1673ffffffffffffffffffffffffffffffffffffffff1673ffffffffffffffffffffffffffffffffffffffff16815260200190815260200160002060008060009054906101000a900473ffffffffffffffffffffffffffffffffffffffff1673ffffffffffffffffffffffffffffffffffffffff1673ffffffffffffffffffffffffffffffffffffffff168152602001908152602001600020600082825461130f91906117b9565b925050819055507f84fd7c67789c01da81d4ff85e4a4ce9e74799a1b33736c0033c27c82cd0231b382600001548360010160009054906101000a900473ffffffffffffffffffffffffffffffffffffffff16338560020160009054906101000a900473ffffffffffffffffffffffffffffffffffffffff1686600301548760040160009054906101000a900473ffffffffffffffffffffffffffffffffffffffff168860050154426040516113cb989796959493929190611bd0565b60405180910390a15050565b600080fd5b600073ffffffffffffffffffffffffffffffffffffffff82169050919050565b6000611407826113dc565b9050919050565b611417816113fc565b811461142257600080fd5b50565b6000813590506114348161140e565b92915050565b60008060408385031215611451576114506113d7565b5b600061145f85828601611425565b925050602061147085828601611425565b9150509250929050565b6000819050919050565b61148d8161147a565b82525050565b60006020820190506114a86000830184611484565b92915050565b6114b78161147a565b81146114c257600080fd5b50565b6000813590506114d4816114ae565b92915050565b6000602082840312156114f0576114ef6113d7565b5b60006114fe848285016114c5565b91505092915050565b60008115159050919050565b61151c81611507565b82525050565b60006020820190506115376000830184611513565b92915050565b60008060408385031215611554576115536113d7565b5b600061156285828601611425565b9250506020611573858286016114c5565b9150509250929050565b611586816113fc565b82525050565b60006020820190506115a1600083018461157d565b92915050565b600080600080608085870312156115c1576115c06113d7565b5b60006115cf87828801611425565b94505060206115e0878288016114c5565b93505060406115f187828801611425565b9250506060611602878288016114c5565b91505092959194509250565b600060e082019050611623600083018a611484565b611630602083018961157d565b61163d604083018861157d565b61164a6060830187611484565b611657608083018661157d565b61166460a0830185611484565b61167160c0830184611484565b98975050505050505050565b6000606082019050611692600083018661157d565b61169f602083018561157d565b6116ac6040830184611484565b949350505050565b6116bd81611507565b81146116c857600080fd5b50565b6000815190506116da816116b4565b92915050565b6000602082840312156116f6576116f56113d7565b5b6000611704848285016116cb565b91505092915050565b600082825260208201905092915050565b7f746f6b656e207472616e73666572206661696c65640000000000000000000000600082015250565b600061175460158361170d565b915061175f8261171e565b602082019050919050565b6000602082019050818103600083015261178381611747565b9050919050565b7f4e487b7100000000000000000000000000000000000000000000000000000000600052601160045260246000fd5b60006117c48261147a565b91506117cf8361147a565b9250827fffffffffffffffffffffffffffffffffffffffffffffffffffffffffffffffff038211156118045761180361178a565b5b828201905092915050565b6000608082019050611824600083018761157d565b611831602083018661157d565b61183e6040830185611484565b61184b6060830184611484565b95945050505050565b7f4f7264657220646f6573206e6f74206578697374000000000000000000000000600082015250565b600061188a60148361170d565b915061189582611854565b602082019050919050565b600060208201905081810360008301526118b98161187d565b9050919050565b7f6f7264657220697320696e76616c696400000000000000000000000000000000600082015250565b60006118f660108361170d565b9150611901826118c0565b602082019050919050565b60006020820190508181036000830152611925816118e9565b9050919050565b7f6f7264657220697320616c72656164792063616e63656c6c6564000000000000600082015250565b6000611962601a8361170d565b915061196d8261192c565b602082019050919050565b6000602082019050818103600083015261199181611955565b9050919050565b7f6f7264657220697320616c72656164792066696c6c6564000000000000000000600082015250565b60006119ce60178361170d565b91506119d982611998565b602082019050919050565b600060208201905081810360008301526119fd816119c1565b9050919050565b6000611a0f8261147a565b91507fffffffffffffffffffffffffffffffffffffffffffffffffffffffffffffffff821415611a4257611a4161178a565b5b600182019050919050565b7f696e73756666696369656e742062616c616e6365000000000000000000000000600082015250565b6000611a8360148361170d565b9150611a8e82611a4d565b602082019050919050565b60006020820190508181036000830152611ab281611a76565b9050919050565b6000604082019050611ace600083018561157d565b611adb6020830184611484565b9392505050565b6000611aed8261147a565b9150611af88361147a565b925082821015611b0b57611b0a61178a565b5b828203905092915050565b6000611b218261147a565b9150611b2c8361147a565b9250817fffffffffffffffffffffffffffffffffffffffffffffffffffffffffffffffff0483118215151615611b6557611b6461178a565b5b828202905092915050565b7f4e487b7100000000000000000000000000000000000000000000000000000000600052601260045260246000fd5b6000611baa8261147a565b9150611bb58361147a565b925082611bc557611bc4611b70565b5b828204905092915050565b600061010082019050611be6600083018b611484565b611bf3602083018a61157d565b611c00604083018961157d565b611c0d606083018861157d565b611c1a6080830187611484565b611c2760a083018661157d565b611c3460c0830185611484565b611c4160e0830184611484565b999850505050505050505056fea2646970667358221220b1ddc6de175713d863d180926c96b8b73fae5279c17909b85043b165b56d1fa864736f6c63430008090033",
	"linkReferences": {},
	"deployedLinkReferences": {}
}